{
  "_format": "hh-sol-artifact-1",
  "contractName": "Token",
  "sourceName": "contracts/Token.sol",
  "abi": [
    {
      "anonymous": false,
      "inputs": [
        {
          "indexed": true,
          "internalType": "address",
          "name": "from",
          "type": "address"
        },
        {
          "indexed": true,
          "internalType": "address",
          "name": "to",
          "type": "address"
        },
        {
          "indexed": false,
          "internalType": "uint256",
          "name": "value",
          "type": "uint256"
        }
      ],
      "name": "Transfer",
      "type": "event"
    },
    {
      "inputs": [
        {
          "internalType": "address",
          "name": "_addr",
          "type": "address"
        }
      ],
      "name": "Account",
      "outputs": [
        {
          "components": [
            {
              "internalType": "bool",
              "name": "check",
              "type": "bool"
            },
            {
              "internalType": "string",
              "name": "name",
              "type": "string"
            },
            {
              "internalType": "string",
              "name": "symbol",
              "type": "string"
            },
            {
              "internalType": "uint256",
              "name": "coinValue",
              "type": "uint256"
            },
            {
              "internalType": "uint256",
              "name": "coinNumber",
              "type": "uint256"
            }
          ],
          "internalType": "struct Token.wallet",
          "name": "",
          "type": "tuple"
        }
      ],
      "stateMutability": "view",
      "type": "function"
    },
    {
      "inputs": [
        {
          "internalType": "address",
          "name": "_to",
          "type": "address"
        },
        {
          "internalType": "uint256",
          "name": "_amounts",
          "type": "uint256"
        }
      ],
      "name": "DepositMoney",
      "outputs": [],
      "stateMutability": "payable",
      "type": "function"
    },
    {
      "inputs": [
        {
          "internalType": "address",
          "name": "_addr",
          "type": "address"
        },
        {
          "internalType": "string",
          "name": "_name",
          "type": "string"
        },
        {
          "internalType": "string",
          "name": "_symbol",
          "type": "string"
        },
        {
          "internalType": "uint256",
          "name": "_coinValue",
          "type": "uint256"
        }
      ],
      "name": "MintToken",
      "outputs": [],
      "stateMutability": "payable",
      "type": "function"
    },
    {
      "inputs": [
        {
          "internalType": "address",
          "name": "",
          "type": "address"
        }
      ],
      "name": "balances",
      "outputs": [
        {
          "internalType": "uint256",
          "name": "",
          "type": "uint256"
        }
      ],
      "stateMutability": "view",
      "type": "function"
    },
    {
      "inputs": [
        {
          "internalType": "address",
          "name": "_from",
          "type": "address"
        },
        {
          "internalType": "address",
          "name": "_to",
          "type": "address"
        },
        {
          "internalType": "uint256",
          "name": "_amounts",
          "type": "uint256"
        }
      ],
      "name": "transfer",
      "outputs": [],
      "stateMutability": "payable",
      "type": "function"
    },
    {
      "inputs": [
        {
          "internalType": "address",
          "name": "",
          "type": "address"
        }
      ],
      "name": "w",
      "outputs": [
        {
          "internalType": "bool",
          "name": "check",
          "type": "bool"
        },
        {
          "internalType": "string",
          "name": "name",
          "type": "string"
        },
        {
          "internalType": "string",
          "name": "symbol",
          "type": "string"
        },
        {
          "internalType": "uint256",
          "name": "coinValue",
          "type": "uint256"
        },
        {
          "internalType": "uint256",
          "name": "coinNumber",
          "type": "uint256"
        }
      ],
      "stateMutability": "view",
      "type": "function"
    }
  ],
  "bytecode": "0x608060405234801561001057600080fd5b50611384806100206000396000f3fe6080604052600436106100555760003560e01c806327e235e31461005a578063303118981461009757806332da008e146100d457806364ef19a3146100f0578063beabacc81461010c578063f23c19d314610128575b600080fd5b34801561006657600080fd5b50610081600480360381019061007c9190610bf8565b610169565b60405161008e9190611033565b60405180910390f35b3480156100a357600080fd5b506100be60048036038101906100b99190610bf8565b610181565b6040516100cb9190611011565b60405180910390f35b6100ee60048036038101906100e99190610d03565b610405565b005b61010a60048036038101906101059190610c70565b61045f565b005b61012660048036038101906101219190610c21565b61060a565b005b34801561013457600080fd5b5061014f600480360381019061014a9190610bf8565b61093f565b604051610160959493929190610f50565b60405180910390f35b60016020528060005260406000206000915090505481565b610189610a92565b6000600160008473ffffffffffffffffffffffffffffffffffffffff1673ffffffffffffffffffffffffffffffffffffffff1681526020019081526020016000205411801561022357506000808373ffffffffffffffffffffffffffffffffffffffff1673ffffffffffffffffffffffffffffffffffffffff16815260200190815260200160002060000160009054906101000a900460ff165b610262576040517f08c379a000000000000000000000000000000000000000000000000000000000815260040161025990610fd1565b60405180910390fd5b6000808373ffffffffffffffffffffffffffffffffffffffff1673ffffffffffffffffffffffffffffffffffffffff1681526020019081526020016000206040518060a00160405290816000820160009054906101000a900460ff161515151581526020016001820180546102d690611221565b80601f016020809104026020016040519081016040528092919081815260200182805461030290611221565b801561034f5780601f106103245761010080835404028352916020019161034f565b820191906000526020600020905b81548152906001019060200180831161033257829003601f168201915b5050505050815260200160028201805461036890611221565b80601f016020809104026020016040519081016040528092919081815260200182805461039490611221565b80156103e15780601f106103b6576101008083540402835291602001916103e1565b820191906000526020600020905b8154815290600101906020018083116103c457829003601f168201915b50505050508152602001600382015481526020016004820154815250509050919050565b80600160008473ffffffffffffffffffffffffffffffffffffffff1673ffffffffffffffffffffffffffffffffffffffff168152602001908152602001600020600082825461045491906110dc565b925050819055505050565b6000600160008673ffffffffffffffffffffffffffffffffffffffff1673ffffffffffffffffffffffffffffffffffffffff16815260200190815260200160002054116104e1576040517f08c379a00000000000000000000000000000000000000000000000000000000081526004016104d890610ff1565b60405180910390fd5b6040518060a0016040528060011515815260200184815260200183815260200182815260200182600160008873ffffffffffffffffffffffffffffffffffffffff1673ffffffffffffffffffffffffffffffffffffffff168152602001908152602001600020546105529190611132565b8152506000808673ffffffffffffffffffffffffffffffffffffffff1673ffffffffffffffffffffffffffffffffffffffff16815260200190815260200160002060008201518160000160006101000a81548160ff02191690831515021790555060208201518160010190805190602001906105cf929190610ac3565b5060408201518160020190805190602001906105ec929190610ac3565b50606082015181600301556080820151816004015590505050505050565b80600160008573ffffffffffffffffffffffffffffffffffffffff1673ffffffffffffffffffffffffffffffffffffffff16815260200190815260200160002054101580156106595750600081115b80156106b057506000808473ffffffffffffffffffffffffffffffffffffffff1673ffffffffffffffffffffffffffffffffffffffff16815260200190815260200160002060000160009054906101000a900460ff165b801561070757506000808373ffffffffffffffffffffffffffffffffffffffff1673ffffffffffffffffffffffffffffffffffffffff16815260200190815260200160002060000160009054906101000a900460ff165b610746576040517f08c379a000000000000000000000000000000000000000000000000000000000815260040161073d90610fb1565b60405180910390fd5b80600160008573ffffffffffffffffffffffffffffffffffffffff1673ffffffffffffffffffffffffffffffffffffffff16815260200190815260200160002060008282546107959190611163565b9250508190555080600160008473ffffffffffffffffffffffffffffffffffffffff1673ffffffffffffffffffffffffffffffffffffffff16815260200190815260200160002060008282546107eb91906110dc565b925050819055506000808473ffffffffffffffffffffffffffffffffffffffff1673ffffffffffffffffffffffffffffffffffffffff168152602001908152602001600020600301548161083f9190611132565b6000808573ffffffffffffffffffffffffffffffffffffffff1673ffffffffffffffffffffffffffffffffffffffff168152602001908152602001600020600401600082825461088f9190611163565b925050819055506000808373ffffffffffffffffffffffffffffffffffffffff1673ffffffffffffffffffffffffffffffffffffffff16815260200190815260200160002060030154816108e39190611132565b6000808473ffffffffffffffffffffffffffffffffffffffff1673ffffffffffffffffffffffffffffffffffffffff168152602001908152602001600020600401600082825461093391906110dc565b92505081905550505050565b60006020528060005260406000206000915090508060000160009054906101000a900460ff169080600101805461097590611221565b80601f01602080910402602001604051908101604052809291908181526020018280546109a190611221565b80156109ee5780601f106109c3576101008083540402835291602001916109ee565b820191906000526020600020905b8154815290600101906020018083116109d157829003601f168201915b505050505090806002018054610a0390611221565b80601f0160208091040260200160405190810160405280929190818152602001828054610a2f90611221565b8015610a7c5780601f10610a5157610100808354040283529160200191610a7c565b820191906000526020600020905b815481529060010190602001808311610a5f57829003601f168201915b5050505050908060030154908060040154905085565b6040518060a00160405280600015158152602001606081526020016060815260200160008152602001600081525090565b828054610acf90611221565b90600052602060002090601f016020900481019282610af15760008555610b38565b82601f10610b0a57805160ff1916838001178555610b38565b82800160010185558215610b38579182015b82811115610b37578251825591602001919060010190610b1c565b5b509050610b459190610b49565b5090565b5b80821115610b62576000816000905550600101610b4a565b5090565b6000610b79610b748461107f565b61104e565b905082815260208101848484011115610b9157600080fd5b610b9c8482856111df565b509392505050565b600081359050610bb381611320565b92915050565b600082601f830112610bca57600080fd5b8135610bda848260208601610b66565b91505092915050565b600081359050610bf281611337565b92915050565b600060208284031215610c0a57600080fd5b6000610c1884828501610ba4565b91505092915050565b600080600060608486031215610c3657600080fd5b6000610c4486828701610ba4565b9350506020610c5586828701610ba4565b9250506040610c6686828701610be3565b9150509250925092565b60008060008060808587031215610c8657600080fd5b6000610c9487828801610ba4565b945050602085013567ffffffffffffffff811115610cb157600080fd5b610cbd87828801610bb9565b935050604085013567ffffffffffffffff811115610cda57600080fd5b610ce687828801610bb9565b9250506060610cf787828801610be3565b91505092959194509250565b60008060408385031215610d1657600080fd5b6000610d2485828601610ba4565b9250506020610d3585828601610be3565b9150509250929050565b610d48816111a9565b82525050565b610d57816111a9565b82525050565b6000610d68826110af565b610d7281856110ba565b9350610d828185602086016111ee565b610d8b8161130f565b840191505092915050565b6000610da1826110af565b610dab81856110cb565b9350610dbb8185602086016111ee565b610dc48161130f565b840191505092915050565b6000610ddc6023836110cb565b91507f5472616e73666572206661696c65643a20696e73756666696369656e7420667560008301527f6e647300000000000000000000000000000000000000000000000000000000006020830152604082019050919050565b6000610e426012836110cb565b91507f77616c6c6574206e6f74206372656174656400000000000000000000000000006000830152602082019050919050565b6000610e826013836110cb565b91507f4d6f6e6579206e6f74206465706f7369746564000000000000000000000000006000830152602082019050919050565b600060a083016000830151610ecd6000860182610d3f565b5060208301518482036020860152610ee58282610d5d565b91505060408301518482036040860152610eff8282610d5d565b9150506060830151610f146060860182610f32565b506080830151610f276080860182610f32565b508091505092915050565b610f3b816111d5565b82525050565b610f4a816111d5565b82525050565b600060a082019050610f656000830188610d4e565b8181036020830152610f778187610d96565b90508181036040830152610f8b8186610d96565b9050610f9a6060830185610f41565b610fa76080830184610f41565b9695505050505050565b60006020820190508181036000830152610fca81610dcf565b9050919050565b60006020820190508181036000830152610fea81610e35565b9050919050565b6000602082019050818103600083015261100a81610e75565b9050919050565b6000602082019050818103600083015261102b8184610eb5565b905092915050565b60006020820190506110486000830184610f41565b92915050565b6000604051905081810181811067ffffffffffffffff82111715611075576110746112e0565b5b8060405250919050565b600067ffffffffffffffff82111561109a576110996112e0565b5b601f19601f8301169050602081019050919050565b600081519050919050565b600082825260208201905092915050565b600082825260208201905092915050565b60006110e7826111d5565b91506110f2836111d5565b9250827fffffffffffffffffffffffffffffffffffffffffffffffffffffffffffffffff0382111561112757611126611253565b5b828201905092915050565b600061113d826111d5565b9150611148836111d5565b92508261115857611157611282565b5b828204905092915050565b600061116e826111d5565b9150611179836111d5565b92508282101561118c5761118b611253565b5b828203905092915050565b60006111a2826111b5565b9050919050565b60008115159050919050565b600073ffffffffffffffffffffffffffffffffffffffff82169050919050565b6000819050919050565b82818337600083830152505050565b60005b8381101561120c5780820151818401526020810190506111f1565b8381111561121b576000848401525b50505050565b6000600282049050600182168061123957607f821691505b6020821081141561124d5761124c6112b1565b5b50919050565b7f4e487b7100000000000000000000000000000000000000000000000000000000600052601160045260246000fd5b7f4e487b7100000000000000000000000000000000000000000000000000000000600052601260045260246000fd5b7f4e487b7100000000000000000000000000000000000000000000000000000000600052602260045260246000fd5b7f4e487b7100000000000000000000000000000000000000000000000000000000600052604160045260246000fd5b6000601f19601f8301169050919050565b61132981611197565b811461133457600080fd5b50565b611340816111d5565b811461134b57600080fd5b5056fea264697066735822122042bcbc56568750217d5a4201adbfd52c498563d04798fc34938689c11f453a7964736f6c63430008000033",
  "linkReferences": {},
  "deployedLinkReferences": {}
}